:020000000329D2
:0E000600213083120313FD00FD0B07280800B4
:100014000F3083120313FC004730FD00FD0B102842
:0A002400FC0B10280000000008008B
:06002E00000000000800C4
:1000340083120313D31B2028881321288817531BEA
:100044002528081326280817D31A2A2888122B28AB
:100054008816531A2F280812302808164B183428EB
:10006400081535280811881517208811D3193C283C
:1000740088133D2888175319412808134228081764
:10008400D318462888124728881653184B28081274
:100094004C2808164B1850280815512808118815A3
:1000A400172088114B1C58280A20592803200800BF
:0E00B400831203134D088A004C0882000800D6
:1000C200831203134B105208D3001A204B1408005A
:1000D2008316031388110811081288120813881353
:1000E20083128811081188130813881208120A2033
:1000F2000A200A20881608168815172088110A2057
:100102008815172088110A208815172088110A20BF
:1001120008128815172088110A20881517208811BF
:10012200881288178815172088110A208813081644
:1001320088151720881108128815172088110A209F
:1001420088151720881108168815172088110A208B
:10015200081288151720881188170817881608169C
:0C0162008815172088110A204B14080093
:10016E00C928803083120313CE00DC28C030CE00A5
:10017E00DC289430CE00DC28D430CE00DC28803051
:10018E00CE00DC28831203134E08013A0319B82857
:10019E004E08023A0319BD284E08033A0319C02827
:1001AE004E08043A0319C328C6284F03F0004E0820
:1001BE00F0077008CE007008D3001A204B10D10142
:1001CE0051085007840000080319F52851085007FC
:1001DE0084000008D2006120D10AE7284B140800E1
:1001EE005A208A110A128000840ACC0A0319CD0AF9
:0801FE00F003031DF7280800BF
:10020600C0218316031306148610061186110612E2
:100216008312861406158615061669200130D3004A
:100226001A200C30D3001A200130CE000130CF0046
:100236002E30D000B7201530FB004B30FC00BE300E
:10024600FD00FD0B2429FC0B2429FB0B24290000AF
:100256000130D3001A200130CE000130CF003630F5
:10026600D000B7200230CE000130CF004530D0009C
:10027600B720061855290130CE000B30CF0041308B
:10028600D000B7200230CE000630CF002230D0009A
:10029600B72086148615061106120130A00000301C
:1002A600A10080290130CE000B30CF002630D000CF
:1002B600B7200230CE000630CF002A30D000B7205B
:1002C60086108611061500302106031D6C290130A3
:1002D6002006031D802906164830FB000630FC0068
:1002E6009F30FD00FD0B7529FC0B7529FB0B75294D
:1002F600000000000612A001A1010630FB00133029
:10030600FC00AD30FD00FD0B8629FC0B8629FB0B9E
:0A0316008629000000002E298F291F
:10038000203084002B3083120313F0009530CC0012
:080390000130CD00F720080048
:04032A000034003467
:08032E004F344634463400341C
:080336004434723479340034C0
:08033E004F344E34203400342A
:1003460057346134693474342E342E342E340034E8
:10035600483475346D3461346434693474347934B2
:0603660053343A34003468
:08036C00573465347434003489
:0C037400503475346D3470343A34003469
:02400E004A2F37
:00000001FF
